:100000000C94A1020C94C9020C94C9020C94C9026C
:100010000C94C9020C94C9020C94C9020C94C90234
:100020000C94C9020C94C9020C94C9020C944406A5
:100030000C94C9020C94C9020C94C9020C94C90214
:100040000C94BE050C94C9020C94C9020C94C9020C
:100050000C94C9020C94C9020C94C9020C94C902F4
:100060000C94C9020C94C9020101FF030101F703BA
:10007000466972654D656E004500680100006C00C0
:10008000680000000000240027002A000000000093
:10009000250028002B000500893008023802497825
:1000A00068140000466972654D656E0046697265A8
:1000B0004D656E202D205061757365640008083809
:1000C0000B6BFFFF6B0B38080842E742665A42424F
:1000D000A50808183E17073F7EFCF80808187CEEB4
:1000E000C7EFFF7E661030FFE0FFE0FFE0E0E0E0FA
:1000F000E7E0E7E0FFE0FFFFFFFFE0E0E0E0E7E050
:10010000E7E0FFE0FFFFFFFFE0E0E0E0E0E0E7E046
:10011000E7E0FFFFFFFFFFE0E0E0E0E0E0E0E7E036
:10012000E7FFFFFFFFE0FFE0E0E0E0E0E0E0E0FF0E
:10013000E0FFE0E0E0E0E0E0E0E0E0E0E0FFE0FF62
:10014000E0FFE0FFE0FFE00500380168010000404B
:100150001E003C1FFE3FF0000000303C033FFC004F
:100160000000607000FFFF000000C1C00FFFFF80B3
:100170000001C3801FFFFFE000038F801FFFE038F6
:10018000000308001FF01FC8000308001FC7FFE896
:10019000000308000C380FF80003080038C00FF007
:1001A00000030800630007E0000308001C0003C010
:1001B000000308003000018000030400600000809C
:1001C000000306004000008000018300400000E0C2
:1001D00000009D01C00000E000007F0100000070F1
:1001E00000003F01000380F0000031010007F1B082
:1001F000000039010007F93000001F01F00FFFB8BF
:1002000000000B81FC1FFFA800001A61FFFFFFE840
:10021000000013E1FFFFFFC8000013E1FFFFFF88AC
:1002200000001101A7FFFE08000011FB307FFC0851
:1002300000000C021C00000800000FFE0600003841
:1002400000175344001613780016131400151020DD
:100250000015201000540A03E181867F3E186D834B
:100260000F0F0E0183866033186DC3198F1803C3F7
:100270008E6033186DE330CF1803C39E603630CDE7
:10028000E360CF3006C79E7E3E30CDB360CF300CEA
:10029000C6F6603330D9B660CF33CFCCF66061B0EC
:1002A000DB1E60CF30D86CE6C061B0DB1E618F19F9
:1002B000986CC6C063B19B0E330F0FB078C6FF7E3B
:1002C0001F1B061E0FF6E8DBCFC3B8AEA49B928AB5
:1002D000827B746E68625C57524E4945413E3A37A4
:1002E00034312E2C29272523210A0A153A49676E15
:1002F0006F7265006D560A0A504C454153452054B3
:1003000055524E204F464620004C4F5720424154F4
:100310005445525921200003053F213F1208120A7B
:10032000100A0E1C0E0C1E0C141A14161F161E1387
:100330001E1E1B1E1E1F1E3F213F3A2F3A173D1740
:100340003F213F181F02040A041F0E04040E1F0A57
:100350001F0A0E0E1F04110E2E252E2F2A2E2629BF
:1003600029021F02081F08150E04040E150E15158C
:100370001B151B040604040C0400000000170003F6
:1003800000031F0A1F16371A1904130A153A00032F
:1003900000000E11110E000A040A040E04003000C1
:1003A0000404040010001804031F111F121F101D65
:1003B000151711151F07041F17151D1F151D010106
:1003C0001F1F151F17151F000A00003200040A1115
:1003D0000A0A0A110A040115020E11171E051E1F32
:1003E000150A0E110A1F110E1F15111F05010E11FE
:1003F0001D1F041F111F1108100F1F041B1F1010B9
:100400001F061F1E040F0E110E1F09060E112E1FB0
:10041000051A121509011F011F101F0F180F1F0CBD
:100420001F1B041B031C03191513001F11030418C1
:10043000111F000201022020200001020C121E1FC9
:10044000120C0C12120C121F0C1A14041E05242A72
:100450001E1F021C141D1020201D1F0814111F1028
:100460001E041E1E021C0C120C3E0A040C123E1E20
:10047000040214160A020F120E101E0E100E1E0891
:100480001E120C1226281E322A26041E21001F00CE
:10049000211E040102013F213F172B152010204C83
:1004A0004F4144455200172B16201314000A4E6F7B
:1004B0002053442063617264206F720A6E6F204C77
:1004C0004F414445522E4845580A0A153A45786925
:1004D00074001D20466C617368696E670A20206C89
:1004E0006F616465722E2E2E0A0A444F4E275420E7
:1004F0005455524E204F4646210000000000230074
:100500002600290004040404040404040202020274
:1005100002020303030303030102040810204080C6
:100520000102040810200102040810200000000845
:1005300000020100000304070000000000000000AA
:10054000061711241FBECFEFD8E0DEBFCDBF11E0EC
:10055000A0E0B1E0EEE3F3E302C005900D92A83510
:10056000B107D9F724E0A8E5B1E001C01D92A5319B
:10057000B207E1F712E0C1EAD2E004C02197FE0120
:100580000E949219C03AD107C9F70E94BE110C947B
:100590009D190C940000CF92DF92EF92FF920F937F
:1005A0001F93CF93DF936C017A018B01C0E0D0E001
:1005B000CE15DF0589F0D8016D918D01D601ED9141
:1005C000FC910190F081E02DC6010995892B11F471
:1005D0007E0102C02196ECCFC701DF91CF911F9120
:1005E0000F91FF90EF90DF90CF90089540E050E0A2
:1005F00060E871E440937B0150937C0160937D013E
:1006000070937E0180E090E0A0E2B2E480937701F5
:1006100090937801A0937901B0937A0188E090E0FB
:100620009093660180936501409373015093740128
:10063000609375017093760110926B0110926C01BA
:1006400010926D0110926E0190936401809363018A
:1006500080E090E0A0E0BFE380936F019093700191
:10066000A0937101B093720180E090E0A0E8BFE335
:100670008093670190936801A0936901B0936A0128
:10068000109262011092610188EE93E090938401D0
:10069000809383018AE090E09093820180938101AE
:1006A0001092800110927F010895089580E090E0FB
:1006B00008950F931F93CF93DF931F92CDB7DEB7AB
:1006C0008C01FC01608180E090E069830E94111739
:1006D0006981681721F080E090E00E941917F80105
:1006E000618181E090E069830E9411176981681738
:1006F00021F081E090E00E941917C8010F90DF916E
:10070000CF911F910F9108950E949819CF93DF9375
:100710008FE08093E50383E08093E6038DE091E032
:100720000E94830E809161019091620120915F018E
:10073000309160012817390744F490936001809349
:100740005F018FE591E00E945903D5E0D093E50366
:100750008AE08093E6038CE191E00E94830ECEE173
:10076000C093E50380915F01909160010E94960E15
:10077000D093E50381E291E00E94830EC093E503EC
:1007800080916101909162010E94960E83E08093B6
:10079000E50383E28093E6038AE291E00E94830E00
:1007A00089E391E00E94830E8091A503813041F49A
:1007B0008091FE03882321F080E790E00E94870D5E
:1007C0008091A303813021F4DF91CF910C94F60244
:1007D0008091A4038130C1F3DF91CF910895DC01B2
:1007E000ED91FC910190F081E02D09946115710566
:1007F00079F0FB0101900020E9F73197AF01461B2A
:10080000570BDC01ED91FC910280F381E02D0994FE
:1008100080E090E008954F925F926F927F92EF9206
:10082000FF920F931F93CF93DF93CDB7DEB7A197BE
:100830000FB6F894DEBF0FBECDBF7C01FA01CB012D
:1008400019A2223008F42AE08E010F5D1F4F422EBC
:10085000512C612C712CBF01A30192010E945117F0
:10086000F901CA01015011096A3014F4605D01C038
:10087000695CD8016C93232B242B252B61F7B801DD
:10088000C7010E94F603A1960FB6F894DEBF0FBE13
:10089000CDBFDF91CF911F910F91FF90EF907F908F
:1008A0006F905F904F900895833081F028F48130ED
:1008B00099F08230A1F008958730A9F08830B9F01E
:1008C0008430D1F4809180008F7D03C080918000BE
:1008D0008F7780938000089584B58F7702C084B5A8
:1008E0008F7D84BD08958091B0008F7703C0809183
:1008F000B0008F7D8093B00008951F93CF93DF9356
:10090000282F30E0F901E45DFA4F8491F901E85EA7
:10091000FA4FD491F901EC5FFA4FC491CC23C9F09E
:10092000162F81110E945404EC2FF0E0EE0FFF1FF0
:10093000E457FF4FA591B4918FB7F894111105C0FA
:100940009C91ED2FE095E92302C0EC91ED2BEC9307
:100950008FBFDF91CF911F910895CF93DF9390E0E8
:10096000FC01E85EFA4F2491FC01EC5FFA4F8491A0
:10097000882361F190E0880F991FFC01EE57FF4F2B
:10098000C591D491FC01E457FF4FA591B491611139
:1009900009C09FB7F8948881209582238883EC91C1
:1009A0002E230BC0623061F49FB7F8943881822FF8
:1009B000809583238883EC912E2B2C939FBF06C0B8
:1009C0008FB7F894E8812E2B28838FBFDF91CF91CA
:1009D00008951F93CF93DF93182FEB0161E00E94DE
:1009E000AD04209711F460E004C0CF3FD10539F485
:1009F00061E0812FDF91CF911F910C947D04E12F55
:100A0000F0E0E45DFA4FE491E330F9F048F4E130CE
:100A1000B9F0E230A1F584B5806284BDC8BD34C0B0
:100A2000E730E9F0E83019F1E43049F580918000D1
:100A3000806280938000D0938B00C0938A0024C092
:100A400084B5806884BDC7BD1FC080918000806868
:100A500080938000D0938900C093880015C0809156
:100A6000B00080688093B000C093B3000DC0809147
:100A7000B00080628093B000C093B40005C0C0385D
:100A8000D1050CF0B5CFAFCFDF91CF911F91089575
:100A90008E3008F08E508770806480937C00809147
:100AA0007A00806480937A0080917A0086FDFCCF82
:100AB000809178002091790090E0922B08953FB7C3
:100AC000F89480915A0190915B01A0915C01B091E2
:100AD0005D0126B5A89B05C02F3F19F00196A11D09
:100AE000B11D3FBFBA2FA92F982F8827820F911DC4
:100AF000A11DB11DBC01CD0142E0660F771F881F0B
:100B0000991F4A95D1F708958F929F92AF92BF9205
:100B1000CF92DF92EF92FF926B017C010E945F0502
:100B20004B015C01C114D104E104F104F1F00E9415
:100B30005F05DC01CB0188199909AA09BB09883E28
:100B40009340A105B10570F321E0C21AD108E10874
:100B5000F10888EE880E83E0981EA11CB11CC11418
:100B6000D104E104F10419F7DDCFFF90EF90DF909D
:100B7000CF90BF90AF909F908F9008951F920F924B
:100B80000FB60F9211242F933F938F939F93AF93A0
:100B9000BF9380918A0190918B01A0918C01B091BB
:100BA0008D013091590123E0230F2D3720F4019658
:100BB000A11DB11D05C026E8230F0296A11DB11D80
:100BC0002093590180938A0190938B01A0938C010B
:100BD000B0938D0180915A0190915B01A0915C01CD
:100BE000B0915D010196A11DB11D80935A019093B2
:100BF0005B01A0935C01B0935D01BF91AF919F91A8
:100C00008F913F912F910F900FBE0F901F901895CD
:100C100080918501882319F08091860101C080E0D0
:100C20008093B4000895CF93DF93EC011F8A1D8A4F
:100C30001CA21BA2188E109286011092870110929E
:100C400085010E94080688E790E09E878D871B8AB1
:100C50001A8A81E0898389E08E8B198E1B8E1D8E06
:100C6000DF91CF910895FC0161110DC0178A158A9B
:100C700014A213A2108E1092860110928701109276
:100C800085010C94080608951F920F920FB60F92DB
:100C900011242F933F934F935F936F937F938F9381
:100CA0009F93AF93BF93EF93FF9360918701662368
:100CB00021F1809158018F5F8093580190918801B4
:100CC0008917D8F09091850181E08927809385016B
:100CD0001092580180918901882369F08091000168
:100CE00093E4899F802D1124895B809300010E94E9
:100CF0005E19909386010E940806FF91EF91BF91C3
:100D0000AF919F918F917F916F915F914F913F91A3
:100D10002F910F900FBE0F901F9018954F925F92DA
:100D20006F927F928F929F92AF92BF92CF92DF92FB
:100D3000EF92FF920F931F93CF93DF93F901C4902B
:100D400031965491EC0108A164350CF018C10C2CBB
:100D5000000CDD08A62F062E000CBB0B7D01EC0C51
:100D6000FD1C1E141F040CF00AC140330CF007C117
:100D7000A52E842E042E000C9908F401E50FF11D18
:100D800057FDFA951E161F060CF0F9C02E5F3F4F57
:100D9000E6012796D7FD279673E0D595C7957A95F6
:100DA000E1F747FF0AC0A52EA40EC89DA001C99D6A
:100DB000500D1124241B350B40E0EA2D0A2C000CA9
:100DC000FF0BE40FF11D47FDFA95F1971CF050E37E
:100DD000A52EA41A67FD60E0F701E535F10514F0D2
:100DE000E4E5F0E07E2FFC01D484D426862F062E85
:100DF000000C990BFC01EA1BFB0BDF017F01F7E004
:100E0000EF22FF24E0E8F0E002C0F595E795EA94D0
:100E1000E2F71E2FB7FD179653E0B595A7955A95A3
:100E2000E1F72A0F3B1FE42FE77051E001C0550F97
:100E3000EA95EAF7459545954595B4E54B02800D51
:100E4000911D112482579E4FC12C0A2C000CBB0807
:100E5000992493942E015524EC2DF0E0EA15FB051E
:100E60000CF08DC0F90144910130E1F47C01A12F17
:100E7000862E881AB82DBE0DB71708F077C0B42F8C
:100E8000BA2321F0E701B881B52BB883B0E0B5955E
:100E9000A795109719F431964491A0E8DFEFED1A69
:100EA000FD0AE8CF01111FC0752E70947C01A12F9F
:100EB000F901862E881AB82DBE0DB71708F056C056
:100EC000B42FBA2321F0E701B881B721B883B0E08D
:100ED000B595A795109719F431964491A0E8DFEFE6
:100EE000ED1AFD0AE8CF033031F07C01A12FF901A2
:100EF000862E881A37C0752E7094862E7C01A12FFD
:100F0000F9018716D8F4B42FBA2359F0E701B88154
:100F1000682C6D2460FE02C0B52B02C0B721E7012A
:100F2000B883B0E0B595A795109719F43196449120
:100F3000A0E88394DFEFED1AFD0AE3CFD92416C0B1
:100F4000B42FBA2321F0E701B881B527B883B0E008
:100F5000B595A795109719F431964491A0E8DFEF65
:100F6000ED1AFD0AB82DBE0DB71750F3550F19F441
:100F70008C5A9F4F51E0C394240D351D6DCFDF91E6
:100F8000CF911F910F91FF90EF90DF90CF90BF9086
:100F9000AF909F908F907F906F905F904F9008954B
:100FA000FC01643508F053C0403308F050C090A1F4
:100FB000742F759575957595262F062E000C330B9D
:100FC000542F57709230A1F4F901E257FE4F84E597
:100FD0007802E00DF11D1124808190E0052E02C001
:100FE000959587950A94E2F78095982F91700AC09D
:100FF000933041F484858170462740954170841375
:1010000003C014C0911112C084E57802200D311D77
:101010001124F901E257FE4F81E090E001C0880FF2
:101020005A95EAF780959081892310C084E578026B
:10103000200D311D1124F901E257FE4F81E090E0AF
:1010400001C0880F5A95EAF79081892B8083089513
:10105000BF92CF92DF92EF92FF920F931F93CF93A5
:10106000DF931F92CDB7DEB77C01D62EC42E002EA3
:10107000000C110B040F111D47FD1A954C2D0C2C63
:10108000000C550B401751077CF4B12CB21654F4E8
:101090006B2D6D0D4C2DC70129830E94D007B39491
:1010A0002981F4CFC394EACF0F90DF91CF911F91A4
:1010B0000F91FF90EF90DF90CF90BF9008956F92C7
:1010C0007F928F929F92AF92BF92CF92DF92EF92D8
:1010D000FF920F931F93CF93DF93EC016A3019F4C3
:1010E0002D819885A1C06D3009F4A4C01885BA84FB
:1010F000D98488A083E58D150CF47FC08FE28B1511
:101100000CF47BC08C8190E00197189F9001199F8F
:10111000300D1124C9018D0D911DD7FC9A9518161B
:1011200019060CF06AC08D81819FC00111248B0DBE
:10113000911DB7FC9A95181619060CF05EC09D2CEF
:10114000CD2CE62EF12CEC2DED190E2E000CFF0B04
:101150008C8190E0E817F9070CF04EC00197E81772
:10116000F90779F0E89E9001E99E300DF89E300D68
:101170001124E20FF31F8E8D9F8DE80FF91F7490DD
:1011800001C0712C6B2CAB2C2A2D2B19022E000CBC
:10119000330B8D8190E0281739075CF570FE10C085
:1011A000113031F44A2D6C2DCE010E94D0071DC0A4
:1011B000012F212F462D692DCE010E94280815C030
:1011C00089A198A1891789F088A3113031F44A2D9B
:1011D0006C2DCE010E94D00707C0012F212F462D74
:1011E000692DCE010E94280888A27694A394610EEE
:1011F000CBCFC394910EA7CF88A228853C81898547
:10120000329F800D112489879F81992399F0082EA0
:10121000000C990B44E550E0239F4019510911241B
:10122000481759073CF49D818A85299F800D112418
:101230008A87198681E090E0DF91CF911F910F910D
:10124000FF90EF90DF90CF90BF90AF909F908F90E6
:101250007F906F9008954F925F926F927F928F92DE
:101260009F92AF92BF92CF92DF92EF92FF920F9335
:101270001F93CF93DF9300D000D01F92CDB7DEB77E
:1012800040910E0450910F0460911004709111046C
:101290002FB7F89480918A0190918B01A0918C01D5
:1012A000B0918D012FBF481B590B6A0B7B0B8091AE
:1012B0000D0490E0A0E0B0E00091090410910A0450
:1012C00020910B0430910C0484179507A607B707EB
:1012D00030F4011511052105310509F036C3012B44
:1012E000022B032B09F02FC38091A50381508E3F61
:1012F00018F58091A403813021F58091B8038F5FA8
:101300006091B90387FD09C0082E000C990B70E0AD
:101310006F5F7F4F0E946A19682F6093B80386EA57
:1013200094E0909313048093120488E4809314044F
:1013300083EB93E00E9413068091A50381508E3FBA
:1013400070F48091A303813009F0ABC389E994E084
:10135000909313048093120488E48093140480E033
:101360000E94E80F8091B403882309F4ADC08091F6
:10137000C8038111A9C08091C0039091C103E0917D
:10138000C503F091C603EE0FFF1FE80FF91F45914B
:1013900054914115510501F52091C403222331F0E8
:1013A0001092C6031092C503FC0114C01092B4033E
:1013B0008091B303882341F080E00E94E80FE09120
:1013C000C503F091C6032FC060E083EB93E00E9459
:1013D00033067AC0459154919A01369527953695F2
:1013E000279540FF51C0CA0116E0969587951A953A
:1013F000E1F78F71952F96959695969590512F7050
:10140000223071F1F8F4211117C08B3008F08AE016
:101410008093C903E091C503F091C6033196F09320
:10142000C603E093C503EE0FFF1F8091C0039091A8
:10143000C103E80FF91FCECF213061F760E00E94B1
:101440005510E8CF2330B1F0243021F72091B703B5
:10145000829F802D11248093D0039093D103DACF03
:101460002091B703829F802D11248093CC03909309
:10147000CD03D0CF2091B703829F802D112480937C
:10148000CE039093CF03C6CF2F732093C7038091D1
:10149000B703859F802D11248093C8031092D80331
:1014A0001092D7031092D60381E08093CA038093F1
:1014B00085011092CB038091C5039091C6030196DC
:1014C0009093C6038093C5038091CA03882309F4CF
:1014D000F3C08091C803811106C060E083EB93E004
:1014E0000E943306E9C081508093C8038091D803DD
:1014F000811148C02091D6033091D7032F5F3F4F11
:10150000C901880F991FE091D203F091D303E80F2E
:10151000F91F65917491862F87708093D903AB0171
:10152000E3E056954795EA95E1F7CA0196958795C8
:10153000972F969596959093DA038F739091B703B2
:10154000899F802D11248093D80341704093890195
:101550003093D7032093D6038091D40390E02817CB
:10156000390780F02091D503222339F0821B91099D
:101570009093D7038093D60305C060E083EB93E09C
:101580000E9433068091D80381508093D8038091C4
:10159000CB0321E0280F2093CB034091C703309168
:1015A000DA03340F8091BF03380F3093B503609195
:1015B000CE03662371F070E0822F022E000C990B8F
:1015C0000E946A198091CF03869F300D11243093B9
:1015D000B5038091B50390E0849664E270E00E94C8
:1015E0006A198093B5033091C9033093B6036091B3
:1015F000CC03662381F0062E000C770B822F022E7F
:10160000000C990B0E946A198091CD03869F300DC2
:1016100011243093B6036091D0036623A1F0822F8A
:10162000220F990B70E00E946A19CB0162E070E012
:101630000E946A192091D1039091B603289F900DC2
:1016400011249093B6038091B6034F3341F08A3052
:101650000CF089E087FD80E08093B60302C0109211
:10166000B603F894E091B503F0E0EB53FD4FE4913D
:10167000E09388013091B6032091DB03320390019F
:1016800011244091D9034203C001439F900D1124BE
:101690000090B80302C0880F991F0A94E2F797FFE1
:1016A00002C081589F4F880F892F881F990B809304
:1016B000870180938601789480911404882309F42B
:1016C0008DC08C3020F49CE0E92EE81A01C0E12C9A
:1016D000FF24F394F092E4031092FC031092FD03B4
:1016E0003091E1034DE2D42E1D2D131B1E0D03E09E
:1016F000030F2EE4412F63E08CED93E03D830E94C5
:1017000028083D810CEF030F1D5F202F41E0612F62
:1017100080E50E942611202F42E0612F83E00E9485
:101720002611F092FC03F092FD030091E10313E017
:10173000100FD01ADE0C23E04D2D622F8CED93E0BC
:101740002D830E94D0072D812F5F2135A9F71D0D14
:10175000FF24FA94F10E23E04F2D622F8CED93E0DD
:101760002D830E94D0072D812F5F2135A9F70350CB
:1017700033E0D30E402F6D2D80E00E940E11402FDC
:101780006D2D83E50E940E1141E06D2D83E00E94D6
:10179000901042E06D2D80E50E949010145044E0BE
:1017A000612F80E50E94901048E0612F83E00E9445
:1017B000901084E08093E5038091E103E81A8E2D78
:1017C000815D8093E60380911204909113040E943E
:1017D000820F809114048150809314048091AA0395
:1017E0009091AB03892B09F486C011E01093FC03A0
:1017F0001092FD039091E00385E5891B8093E5033A
:101800001092E6036091A703613009F455C030F0EF
:101810008091A603653008F067C062C060E083EB8A
:1018200093E00E9433061092B4031093E403E7E1BF
:10183000F3E0E491EF5FE093E003E8E1F3E0E491AB
:10184000EF5FE093E10389E193E09093FB038093E2
:10185000FA031092AB031092AA031092E20318EA63
:101860000E942B098823E1F389E093E00E94820F14
:101870004091A8035091A90360E070E02AE08CED4C
:1018800093E00E940B0484EF92E00E94820F412FAC
:1018900042954F7050E060E070E02AE08CED93E0FC
:1018A0000E940B0489EE92E00E94820F8091A303B4
:1018B000813009F0FCC01FC08091FF0390910004AB
:1018C000A0910104B09102048F709927AA27BB2729
:1018D0000897A105B10510F467E009C068E707C0E3
:1018E000882349F06B5F03C0882329F06FE28CEDF9
:1018F00093E00E94EF030E94420F8091E203811166
:101900000EC088EF91E0EEE8F1E0DF019C011D924E
:1019100021503040E1F71092E5031092E6030E9457
:101920005F056093090470930A0480930B049093FD
:101930000C042091050430910604621B730B709314
:1019400004046093030480E0CCC02FB7F894809126
:101950008A0190918B01A0918C01B0918D012FBFD4
:1019600020910D04820F911DA11DB11D80930E04C5
:1019700090930F04A0931004B09311048091FF037F
:1019800090910004A0910104B09102040196A11D60
:10199000B11D8093FF0390930004A0930104B093C2
:1019A00002041092090410920A0410920B0410927F
:1019B0000C040E945F0560930504709306048093F5
:1019C00007049093080480918F03909190032FE077
:1019D000289F8001299F100D112485E10E94480550
:1019E000800F911F24E0969587952A95E1F79093B3
:1019F000900380938F0320918E03222309F44BC020
:101A000060919203262F30E040E050E029833A8332
:101A10004B835C83C0909303D12CE12CF12C40913B
:101A20009603509197034A01A12CB12C2091940365
:101A3000309195032901612C712C8217930728F0AE
:101A40009C014817590708F49A01C901A0E0B0E0C9
:101A50009C01AD01241935094609570969817A812C
:101A60008B819C816C197D098E099F090E944E19FA
:101A7000A501940124193509460957090E94271721
:101A8000C20ED31EE41EF51EC09291036C2D70E0B1
:101A900085E00E94E9040E94CF0E0E94811181E03E
:101AA00020C0893209F05BCC0E94B30F58CC115092
:101AB00009F0D6CE60E070E085E00E94E90483B7CB
:101AC000817F846083BF83B7816083BF83B7816078
:101AD00083BF889583B78E7F83BF83B78E7F83BF95
:101AE000BFCE0F900F900F900F900F90DF91CF917E
:101AF0001F910F91FF90EF90DF90CF90BF90AF902C
:101B00009F908F907F906F905F904F900895CF92AD
:101B1000DF92EF92FF920F931F93CF93DF93EC012D
:101B200081E08093E4031092E3031092E2031092A9
:101B3000A6038093FC038093FD031CE00E942B0905
:101B40008823E1F3FE018491882319F00091E103D9
:101B500001C000E025E532E040E060E08CED93E07C
:101B60000E948E064CE0400F2FE431E060E08CEDE7
:101B700093E00E948E061092E5031093E603CE01D7
:101B80000E94820F8091E003982F990F890F819511
:101B90008D5A8093E5038091E103982F990F890F67
:101BA0008195835D8093E6038091FF0384FF03C0EA
:101BB00081E592E002C08DE492E00E94A30F809143
:101BC000E003982F990F890F81958D5A8093E50333
:101BD0008091E6038F5F8093E6038091B8038823AA
:101BE00019F089E492E002C085E492E00E94A30F1C
:101BF0009091E003892F880F980F91959D5A9093AB
:101C0000E5038091E6038F5F8093E60381E492E031
:101C10000E94A30F8091A4038130B1F48091B80396
:101C20008F5F6091B90387FD09C0082E000C990BE6
:101C300070E06F5F7F4F0E946A19682F6093B8034E
:101C400083EB93E00E9413068091A3038130B1F0EF
:101C50008091FE03482F50E060E070E0C090FF03E9
:101C6000D0900004E0900104F0900204C416D50660
:101C7000E606F70608F43FC08F3FE9F18FEF809347
:101C8000FE0360E083EB93E00E9433061092B403FE
:101C90001092CA031092C8031092D7031092D60371
:101CA0001092CB0310928601109287011092850149
:101CB0000E94080687E491E09093C1038093C003DB
:101CC0001092C6031092C50381E08093B40399E09B
:101CD0009093C9031092CC031092CE031092D003BC
:101CE0008093A603DF91CF911F910F91FF90EF900A
:101CF000DF90CF9008958091A503813009F01ECF29
:101D00000E94B30F1BCFCF93DF93BC018CED93E008
:101D10000E94F603EC016EE471E08CED93E00E940A
:101D2000F6038C0F9D1FDF91CF910895CF92DF9224
:101D3000EF92FF92CF93DF936C01990FEE08FF08AB
:101D4000F7FE16C06DE28CED93E00E94EF03EC010C
:101D500044275527BA014C195D096E097F092AE00D
:101D60008CED93E00E940B047C01EC0EFD1E08C07C
:101D70002AE0B701A6018CED93E00E940B047C01E0
:101D80006EE471E08CED93E00E94F6038E0D9F1DD2
:101D9000DF91CF91FF90EF90DF90CF900895CF9299
:101DA000DF92EF92FF920F931F93CF93DF93C8E9D7
:101DB000D3E00FE913E0FF24FA9497E0E92EE00E58
:101DC00062E088810E94AD04288130E0F901E45D81
:101DD000FA4F8491F901E85EFA4FC490F901EC5F83
:101DE000FA4FD490DD2071F081110E945404ED2D42
:101DF000F0E0EE0FFF1FE650FB4FA591B491EC9180
:101E0000EC21B1F4F80180818F5F808360E08881EC
:101E10000E94AD0421960F5F1F4FE012D1CFDF91DA
:101E2000CF911F910F91FF90EF90DF90CF90089589
:101E3000F8018081882371F3F8018F3F11F410823B
:101E4000E5CFF082E3CFCF93C82FF89460E0809184
:101E5000EB030E947D048091EC0318161CF460E0F3
:101E60000E947D04CEBD00000DB407FEFDCF8EB5EF
:101E70008091EC0318161CF461E00E947D047894B4
:101E8000CF9108950F931F93CF938091E8038F5FB5
:101E90008093E8030EE811E0C0E08C2F80640E947C
:101EA000230F80E80E94230F61E08091EB030E94E2
:101EB0007D048091EC0318161CF460E00E947D0400
:101EC00080E090E0F801E80FF91F20812EBD0000AE
:101ED0000DB407FEFDCF2EB501968435910591F71F
:101EE0008091EC0318161CF461E00E947D04CF5F22
:101EF0000C5A1F4FC63089F680E4CF911F910F9185
:101F00000C94230F0F931F93CF93DF938C01C0E0AA
:101F1000D0E0F801EC0FFD1F6491662371F0E091B1
:101F2000DC03F091DD030190F081E02D8CED93E076
:101F30000995892B11F02196ECCFCE01DF91CF913D
:101F40001F910F910895CF93DF930E94820FEC01B0
:101F50006EE471E08CED93E00E94F6038C0F9D1F00
:101F6000DF91CF91089588EF91E0EEE8F1E0DF0195
:101F70009C011D9221503040E1F71092E503109230
:101F8000E60382ED94E00E94820F0E94420F8CB51E
:101F900083608CBD8DB58E7F8DBD81E591E0EEEFC8
:101FA000FFE309951092E2038DEA94E00E94A30FEB
:101FB0000E94420F0E94CF0E8091A303813039F01E
:101FC00062E370E080E090E00E948405F3CF089522
:101FD000AF92BF92CF92DF92EF92FF920F931F9337
:101FE000CF93DF93C82ED12CE601C257DC4F9DA1C1
:101FF000992309F44FC07E019FEFE91AF90AF7010E
:1020000095A1911147C09EA58601000F111F02578F
:102010001C4FF80134A525A5E32FF22FE90FF11D80
:10202000E90FF11D259134912F3FFFEF3F0711F488
:102030001DA230C039ABF601EE0FFF1FE856FC4F72
:102040003327220F331F05A0F6A1E02DE20FF31F67
:10205000A590B49081111AC060E083EB93E00E94D8
:102060003306F801B3AAA2AAF601EE0FFF1FE0564D
:10207000FC4F16A215A281E0F70185A389E08BAF82
:102080001EAEFE017B9615A2329615A229968DA151
:102090008F5F8DA3DF91CF911F910F91FF90EF90F4
:1020A000DF90CF90BF90AF90089570E0DB01AA0F52
:1020B000BB1FA257BC4FD4962C91D497D5969C9118
:1020C000D597E22FF92FE80FF11DE80FF11D2591AB
:1020D00034915F9696963C932E939597F90185914E
:1020E00094919091B703989F802D112462577C4F53
:1020F000FB01B19685A3F901A591B4914B2F50E056
:10210000E82FF0E04E175F0720F4F9012591349194
:10211000832FFB01B296899F802D112485A30895FA
:10212000AF92BF92CF92DF92EF92FF920F931F93E5
:10213000CF93DF93182F062FC1E0D3E08AEFD82E7C
:102140009EEFE92E842F8470C82E842F8270B82EC3
:10215000842F8870A82E4170F42E8C2F880F8F5FEB
:10216000E80ECC2081F04D2F400F6C2F610F8CEDCD
:1021700093E00E94D0074C2F400F6D2F610F8CED24
:1021800093E00E94D007BB2081F0402F4D1B6C2FA5
:10219000610F8CED93E00E94D007402F4C1B6D2FF8
:1021A000610F8CED93E00E94D007AA2081F04C2FA4
:1021B000400F612F6D1B8CED93E00E94D0074D2FD7
:1021C000400F612F6C1B8CED93E00E94D007FF2025
:1021D00081F0402F4C1B612F6D1B8CED93E00E9412
:1021E000D007402F4D1B612F6C1B8CED93E00E949C
:1021F000D007CD1744F4E7FC04C0D150D394D39456
:10220000ED0CCF5FAACFDF91CF911F910F91FF907F
:10221000EF90DF90CF90BF90AF9008950F931F93F2
:10222000CF93DF93182F062FD42FC0E0CD174CF497
:102230004C2F400F612F8CED93E00E94D007CF5FB1
:10224000F5CFDF91CF911F910F9108959F92AF929B
:10225000BF92CF92DF92EF92FF920F931F93CF9393
:10226000DF93F82EE62EB22E03E0020FD0E0C3E09B
:102270008AEFC82E1EEF842F8170982EAA24A39473
:10228000A20E4270D42EDF5F802F8B19180F992079
:1022900081F04C2F440F4A0D6E2D6C1B8D2F8F0D2E
:1022A0000E940E11402F6E2D6D1B8C2F8F0D0E94E2
:1022B0000E11DD2081F04C2F440F4A0D6E2D6C1B4A
:1022C0008F2D8D1B0E940E11402F6E2D6D1B8F2D9B
:1022D0008C1B0E940E11DC1744F417FD04C0C15082
:1022E000C394C3941C0D0E5FCECFDF91CF911F918D
:1022F0000F91FF90EF90DF90CF90BF90AF909F90A5
:1023000008958091AA039091AB03892BB1F180913C
:10231000B2038F7169F584E10E944805BC01990FF1
:10232000880B990B0E942C1826EE3FE34EEC50E4EC
:102330000E94E1180E94FB179B017093A903609310
:10234000A803672B91F084E08093A703EAEAF3E007
:1023500080E0419151912417350718F48093A70329
:1023600008958F5F8430A9F703C08FEF8093A70390
:102370008091B2038F5F8093B2030895CF93DF9370
:10238000CDB7DEB72A970FB6F894DEBF0FBECDBF2C
:10239000789484B5826084BD84B5816084BD85B540
:1023A000826085BD85B5816085BD80916E0081604C
:1023B00080936E00109281008091810082608093F2
:1023C00081008091810081608093810080918000F4
:1023D0008160809380008091B10084608093B1001F
:1023E0008091B00081608093B00080917A00846019
:1023F00080937A0080917A00826080937A00809145
:102400007A00816080937A0080917A00806880935E
:102410007A001092C10082E380930D0481E090E085
:10242000A0E0B0E08093090490930A04A0930B0409
:10243000B0930C048FEF8093FE03E0E8F7E725915B
:1024400034912130304C09F049C0E6E9F7E7E491D6
:10245000E093E703E7E9F7E7E491E0939203E8E923
:10246000F7E7E491E0939303E9E9F7E78591949125
:102470009093950380939403EBE9F7E7859194910A
:10248000909397038093960387E08093B903EEE9D6
:10249000F7E7E491E093B803EFE9F7E7E491E0931D
:1024A000FE03E0EAF7E7859194919093AB03809364
:1024B000AA03E2EAF7E7859194919093AD038093A4
:1024C000AC03E4EAF7E7859194919093AF0380938E
:1024D000AE03E6EAF7E7859194912CC09CE39093D4
:1024E000E703109292038093930380E293E090932A
:1024F00095038093940384ED93E0909397038093E6
:10250000960387E08093B9038093B8038CEA9DE03B
:102510009093AB038093AA038EED9DE09093AD035F
:102520008093AC0384E79EE09093AF038093AE0367
:102530008CE39FE09093B1038093B00311E010937C
:102540008E036FEF70E085E00E94E90488E08093DD
:10255000980389E08093990387E080939A0386E04B
:1025600080939B0304E000939C0382E080939D038F
:1025700081E180939E030E94CF0E8CE39FE09093B5
:10258000A9038093A8030093A7031093B2038BE0E1
:102590008093EA038DE08093E90380E18093EB036D
:1025A0008EE08093ED038FE08093EC031093E403BF
:1025B0001093FC031092FD031093E303E7E1F3E0B3
:1025C000E491EF5FE093E003E8E1F3E0E491EF5F93
:1025D000E093E10389E193E09093FB038093FA0396
:1025E0001FB7F89480915E01811127C0EEE0F5E0FD
:1025F0008491E2E2F5E09491E82FF0E0EE0FFF1F06
:10260000EE57FF4FA591B491EC91E92321F461E0DD
:102610008AE00E947D0461E08AE00E94AD048CB5EE
:1026200080618CBD8CB580648CBD61E08DE00E94C2
:10263000AD0461E08BE00E94AD0480915E018F5F8C
:1026400080935E011FBF8CB58F7D8CBD8CB58C7F58
:1026500081608CBD8DB581608DBD8CB58C608CBD6D
:1026600061E08091EA030E94AD0461E08091E9039A
:102670000E94AD0461E08091EB030E94AD04809163
:10268000ED0318161CF461E00E94AD048091EC0388
:1026900018161CF461E00E94AD048091ED03181639
:1026A00074F460E00E947D046AE070E080E090E0F5
:1026B0000E94840561E08091ED030E947D04809179
:1026C000E903082E000C990BFC01EC5FFA4FE49132
:1026D000F0E0EE0FFF1FE457FF4F25913491309348
:1026E000F1032093F003FC01E85EFA4FE491E093DC
:1026F000F7038091EA03082E000C990BFC01EC5FB4
:10270000FA4FE491F0E0EE0FFF1FE457FF4F2591E1
:1027100034913093EF032093EE03FC01E85EFA4F0F
:10272000E491E093F6038091EC03082E000C990BE2
:10273000FC01EC5FFA4FE491F0E0EE0FFF1FE4576D
:10274000FF4F259134913093F3032093F203FC0162
:10275000E85EFA4FE491E093F8038091EB03082ED2
:10276000000C990BFC01EC5FFA4FE491F0E0EE0FE6
:10277000FF1FE457FF4F259134913093F5032093C9
:10278000F403FC01E85EFA4FE491E093F90381E27F
:102790000E94230F84E10E94230F8091E70387FFAB
:1027A00003C08FE78093E7038091E70380680E946E
:1027B000230F80E20E94230F8CE00E94230F0E94CF
:1027C000420F11E01093B70384E08093DB038EE7A0
:1027D00090E09093C3038093C20360E080E00E9486
:1027E000551061E070E083E00E94E9048091B1003F
:1027F000887F81608093B100F894109280001092DD
:102800008100109285001092840088E191E09093FD
:102810008900809388008091810088608093810086
:102820008091810081608093810080916F0082603F
:1028300080936F0078940E9481118091A40381306D
:1028400019F41092B8031EC08091A7038823C9F31E
:1028500060E083EB93E00E94330686E990E090937A
:10286000C1038093C0031092C6031092C503109356
:10287000B40389E08093C9031092CC031092CE0375
:102880001092D0038091FE03882321F084EA90E027
:102890000E94870D11E01093A6036FEF70E085E0B2
:1028A0000E94E9041093E4030E94F60280E090E0A5
:1028B0000E9411178F3F69F080E090E00E9411178D
:1028C00080935F0181E090E00E9411178093600186
:1028D00006C01A821982CE0101960E9459030E94F5
:1028E0002B09882309F48EC1809183019091840182
:1028F000892B19F40E94860385C18091A50381303C
:10290000C9F325EE30E040E060E08CED93E00E94FA
:102910008E062BED30E048E26BE48CED93E00E94F4
:102920008E06009181011091820110161106B4F4F7
:1029300021ED30E04DE060E18CED93E00E948E06E9
:1029400021ED30E041E26AE08CED93E00E948E06DA
:10295000015011091093820100938101809181013E
:1029600090918201019751F4AAE0B0E0B093800108
:10297000A0937F01109282011092810100917F014A
:102980001091800110161106B4F421ED30E044E1FD
:102990006EE08CED93E00E948E0621ED30E048E081
:1029A00060E18CED93E00E948E06015011091093B6
:1029B000800100937F0180917F01909180010197B8
:1029C00051F42AE030E0309382012093810110928B
:1029D000800110927F018091A1038F3F09F01AC1FD
:1029E00080919F038F3F09F018C16091770170912A
:1029F00078018091790190917A010E94F417462F15
:102A000060917B0170917C0180917D0190917E01AC
:102A100049870E94F41727EC30E049858CED93E05C
:102A20000E948E06C0907301D0907401E0907501F1
:102A3000F090760120E030E046E952E4C701B601AB
:102A40000E94EF1787FFECC020916F013091700159
:102A50004091710150917201C701B6010E94831724
:102A60006093730170937401809375019093760164
:102A7000C0906B01D0906C01E0906D01F0906E0100
:102A800020E030E040E252E4C701B6010E94DC18C9
:102A900087FDE7C080E090E0A0E0B1E4809373019F
:102AA00090937401A0937501B093760110926B011D
:102AB00010926C0110926D0110926E0180E090E016
:102AC000A0E8BFE38093670190936801A093690138
:102AD000B0936A0180906B0190906C01A0906D01A1
:102AE000B0906E0120E030E040E951E4C501B4014E
:102AF0000E94EF17181664F080E090E0A0E8BFE3B2
:102B00008093670190936801A0936901B0936A0173
:102B1000409073015090740160907501709076013F
:102B2000C501B4010E94F417462FC301B2014987C1
:102B30000E94F4172DEB30E049858CED93E00E9464
:102B40008E0620916501309166013C832B83809134
:102B5000770190917801A0917901B0917A018D83EC
:102B60009E83AF83B88760917B0170917C018091D7
:102B70007D0190917E010E94F4176B017C019B0105
:102B80002090630130906401C501B401C9863A8781
:102B90000E94F4174B015C018B01C301B2010E943A
:102BA000F4172B013101660E771E29853A8526150B
:102BB00037050CF46BC03CE4631671040CF084C060
:102BC000A9E4A093E503B1E0B093E603809161012D
:102BD000909162010E94960E8091830190918401F0
:102BE0000197909384018093830129E42093E50366
:102BF00037E03093E6030E94960E8091A403813063
:102C000009F4FAC080E090E0892B09F468CE0E94B4
:102C1000000065CE80FFE4CE68C080FFE6CE89C0AC
:102C200080E090E0A0E0B1E48093730190937401A0
:102C3000A0937501B093760110926B0110926C0114
:102C400010926D0110926E0180E090E0A0E8BFE369
:102C50008093670190936801A0936901B0936A0122
:102C600007CF20916701309168014091690150912F
:102C70006A01C701B6010E94831760936B017093CC
:102C80006C0180936D0190936E0124CF2B813C8168
:102C9000C20ED31E6C157D050CF08DCF6D817E812B
:102CA0008F8198850E94F4179101280D391D6217B4
:102CB00073070CF080CF2B813C81620F731F861647
:102CC00097060CF078CF59C083E5481651040CF0F4
:102CD00077CF820C931C99E2891691040CF470CF83
:102CE000003311050CF06CCF55C0C0907B01D09023
:102CF0007C01E0907D01F0907E0120E030E046E82C
:102D000052E4C701B6010E94EF17882309F468CE88
:102D100020E030E040EC5FE3C701B6010E9483177A
:102D200060937B0170937C0180937D0190937E0181
:102D300057CEC0907B01D0907C01E0907D01F09057
:102D40007E0120E030E040E951E4C701B6010E9475
:102D5000EF17882309F449CE20E030E040EC5FE330
:102D6000C701B6010E94821760937B0170937C01BA
:102D700080937D0190937E0138CE80E090E0A0E8C2
:102D8000BFEB8093670190936801A0936901B093B2
:102D90006A0111CF80916101909162010196909337
:102DA00062018093610180E090E0A0E8B1E480934B
:102DB000730190937401A0937501B0937601109202
:102DC0006B0110926C0110926D0110926E0180E007
:102DD00090E0A0E8BFE38093670190936801A0931F
:102DE0006901B0936A0183EB93E00E94130683EBC1
:102DF00093E00E941306E4CE8091FE03882309F439
:102E000001CF8CEA90E00E94870DFCCE1092DF0388
:102E10001092DE0385E091E09093DD038093DC0364
:102E20000895F999FECF92BD81BDF89A992780B592
:102E30000895262FF999FECF1FBA92BD81BD20BDFE
:102E40000FB6F894FA9AF99A0FBE01960895052ED6
:102E500097FB1EF400940E943E1757FD07D00E9476
:102E6000511707FC03D04EF40C943E175095409533
:102E7000309521953F4F4F4F5F4F08959095809526
:102E8000709561957F4F8F4F9F4F08950E947317E4
:102E9000A59F900DB49F900DA49F800D911D1124AE
:102EA0000895A1E21A2EAA1BBB1BFD010DC0AA1F8B
:102EB000BB1FEE1FFF1FA217B307E407F50720F0A3
:102EC000A21BB30BE40BF50B661F771F881F991F1E
:102ED0001A9469F760957095809590959B01AC0167
:102EE000BD01CF010895A29FB001B39FC001A39F70
:102EF000700D811D1124911DB29F700D811D112433
:102F0000911D08955058BB27AA270E949A170C9428
:102F1000A2180E94941838F00E949B1820F039F4EF
:102F20009F3F19F426F40C9491180EF4E095E7FBFA
:102F30000C948B18E92F0E94B31858F3BA17620744
:102F400073078407950720F079F4A6F50C94D5183B
:102F50000EF4E0950B2EBA2FA02D0B01B9019001B4
:102F60000C01CA01A0011124FF27591B99F0593FF8
:102F700050F4503E68F11A16F040A22F232F342F40
:102F80004427585FF3CF469537952795A795F0408E
:102F90005395C9F77EF41F16BA0B620B730B840BA3
:102FA000BAF09150A1F0FF0FBB1F661F771F881F5B
:102FB000C2F70EC0BA0F621F731F841F48F48795B3
:102FC00077956795B795F7959E3F08F0B0CF9395A5
:102FD000880F08F09927EE0F9795879508950E941E
:102FE000671808F481E008950E94FB176894B111F6
:102FF0000C94D61808950E94BB1888F09F5798F03B
:10300000B92F9927B751B0F0E1F0660F771F881FED
:10301000991F1AF0BA95C9F714C0B13091F00E9407
:10302000D518B1E008950C94D518672F782F88270C
:10303000B85F39F0B93FCCF3869577956795B3952E
:10304000D9F73EF490958095709561957F4F8F4F9D
:103050009F4F0895E89409C097FB3EF490958095A2
:10306000709561957F4F8F4F9F4F9923A9F0F92F4E
:1030700096E9BB279395F695879577956795B795CC
:10308000F111F8CFFAF4BB0F11F460FF1BC06F5FB2
:103090007F4F8F4F9F4F16C0882311F096E911C0C4
:1030A000772321F09EE8872F762F05C0662371F0E5
:1030B00096E8862F70E060E02AF09A95660F771FF9
:1030C000881FDAF7880F9695879597F90895990FD5
:1030D0000008550FAA0BE0E8FEEF16161706E807E2
:1030E000F907C0F012161306E407F50798F0621B03
:1030F000730B840B950B39F40A2661F0232B242BD8
:10310000252B21F408950A2609F4A140A6958FEFF6
:10311000811D811D089597F99F6780E870E060E048
:1031200008959FEF80EC089500240A941616170660
:1031300018060906089500240A94121613061406A8
:1031400005060895092E0394000C11F4882352F00B
:10315000BB0F40F4BF2B11F460FF04C06F5F7F4FC3
:103160008F4F9F4F089557FD9058440F551F59F0AA
:103170005F3F71F04795880F97FB991F61F09F3F64
:1031800079F087950895121613061406551FF2CF8D
:103190004695F1DF08C0161617061806991FF1CFDD
:1031A00086957105610508940895E894BB27662704
:1031B0007727CB0197F908950E94671808F48FEFDD
:1031C00008950E94F4180C94A2180E94941838F0E4
:1031D0000E949B1820F0952311F00C948B180C94EE
:1031E000911811240C94D6180E94B31870F3959F6F
:1031F000C1F3950F50E0551F629FF001729FBB27EE
:10320000F00DB11D639FAA27F00DB11DAA1F649F89
:103210006627B00DA11D661F829F2227B00DA11D3C
:10322000621F739FB00DA11D621F839FA00D611DC2
:10323000221F749F3327A00D611D231F849F600DE3
:10324000211D822F762F6A2F11249F5750409AF00C
:10325000F1F088234AF0EE0FFF1FBB1F661F771F98
:10326000881F91505040A9F79E3F510580F00C9463
:103270008B180C94D6185F3FE4F3983ED4F38695F0
:1032800077956795B795F795E7959F5FC1F7FE2B03
:10329000880F911D9695879597F90895DB018F9377
:1032A0009F930E944617BF91AF91A29F800D911DE1
:1032B000A39F900DB29F900D11240895991B79E062
:1032C00004C0991F961708F0961B881F7A95C9F7B6
:1032D0008095089597FB072E16F4009407D077FD8C
:1032E00009D00E947E1907FC05D03EF49095819587
:1032F0009F4F0895709561957F4F0895AA1BBB1B42
:1033000051E107C0AA1FBB1FA617B70710F0A61BE5
:10331000B70B881F991F5A95A9F780959095BC0106
:10332000CD010895EE0FFF1F0590F491E02D099453
:0E33300081E090E0F8940C949D19F894FFCF82
:10333E0001000000005F08CB025603550347414DC4
:10334E0045204F56455220212121210048696768AA
:10335E002073636F7265203A20005072657373207C
:10336E0043202D2045786974004F7468657220746F
:10337E006F756368202D205265706C6179000D0A9F
:08338E00004C4F414445520080
:00000001FF
